{
	"_format": "hh-sol-artifact-1",
	"contractName": "WavePortal",
	"sourceName": "contracts/WavePortal.sol",
	"abi": [
		{
			"inputs": [],
			"stateMutability": "payable",
			"type": "constructor"
		},
		{
			"anonymous": false,
			"inputs": [
				{
					"indexed": true,
					"internalType": "address",
					"name": "from",
					"type": "address"
				},
				{
					"indexed": false,
					"internalType": "uint256",
					"name": "timestamp",
					"type": "uint256"
				},
				{
					"indexed": false,
					"internalType": "string",
					"name": "message",
					"type": "string"
				}
			],
			"name": "NewWave",
			"type": "event"
		},
		{
			"inputs": [],
			"name": "getAllUsers",
			"outputs": [
				{
					"components": [
						{
							"internalType": "address",
							"name": "addressOfUser",
							"type": "address"
						}
					],
					"internalType": "struct WavePortal.User[]",
					"name": "",
					"type": "tuple[]"
				}
			],
			"stateMutability": "view",
			"type": "function"
		},
		{
			"inputs": [],
			"name": "getAllWaves",
			"outputs": [
				{
					"components": [
						{
							"internalType": "address",
							"name": "waver",
							"type": "address"
						},
						{
							"internalType": "string",
							"name": "message",
							"type": "string"
						},
						{
							"internalType": "uint256",
							"name": "timestamp",
							"type": "uint256"
						}
					],
					"internalType": "struct WavePortal.Wave[]",
					"name": "",
					"type": "tuple[]"
				}
			],
			"stateMutability": "view",
			"type": "function"
		},
		{
			"inputs": [],
			"name": "getTotalWaves",
			"outputs": [
				{
					"internalType": "uint256",
					"name": "",
					"type": "uint256"
				}
			],
			"stateMutability": "view",
			"type": "function"
		},
		{
			"inputs": [
				{
					"internalType": "address",
					"name": "_randomAddress",
					"type": "address"
				}
			],
			"name": "getTotalWavesByAddress",
			"outputs": [
				{
					"internalType": "uint256",
					"name": "",
					"type": "uint256"
				}
			],
			"stateMutability": "view",
			"type": "function"
		},
		{
			"inputs": [],
			"name": "getTotalWavesBySender",
			"outputs": [
				{
					"internalType": "uint256",
					"name": "",
					"type": "uint256"
				}
			],
			"stateMutability": "view",
			"type": "function"
		},
		{
			"inputs": [
				{
					"internalType": "string",
					"name": "_message",
					"type": "string"
				}
			],
			"name": "wave",
			"outputs": [],
			"stateMutability": "nonpayable",
			"type": "function"
		}
	],
	"bytecode": "0x60806040526200003360405180606001604052806036815260200162001b36603691396200005b60201b62000a1c1760201c565b6064444262000043919062000160565b6200004f9190620001ca565b600181905550620002c0565b620000fb816040516024016200007291906200029c565b6040516020818303038152906040527f41304fac000000000000000000000000000000000000000000000000000000007bffffffffffffffffffffffffffffffffffffffffffffffffffffffff19166020820180517bffffffffffffffffffffffffffffffffffffffffffffffffffffffff8381831617835250505050620000fe60201b60201c565b50565b60008151905060006a636f6e736f6c652e6c6f679050602083016000808483855afa5050505050565b6000819050919050565b7f4e487b7100000000000000000000000000000000000000000000000000000000600052601160045260246000fd5b60006200016d8262000127565b91506200017a8362000127565b925082820190508082111562000195576200019462000131565b5b92915050565b7f4e487b7100000000000000000000000000000000000000000000000000000000600052601260045260246000fd5b6000620001d78262000127565b9150620001e48362000127565b925082620001f757620001f66200019b565b5b828206905092915050565b600081519050919050565b600082825260208201905092915050565b60005b838110156200023e57808201518184015260208101905062000221565b60008484015250505050565b6000601f19601f8301169050919050565b6000620002688262000202565b6200027481856200020d565b9350620002868185602086016200021e565b62000291816200024a565b840191505092915050565b60006020820190508181036000830152620002b881846200025b565b905092915050565b61186680620002d06000396000f3fe608060405234801561001057600080fd5b50600436106100625760003560e01c80631e0070d3146100675780634346b85914610097578063449d46c0146100b55780639a2cdc08146100d1578063bd43a908146100ef578063e2842d791461010d575b600080fd5b610081600480360381019061007c9190610d27565b61012b565b60405161008e9190610d6d565b60405180910390f35b61009f6101f3565b6040516100ac9190610d6d565b60405180910390f35b6100cf60048036038101906100ca9190610ece565b6102b9565b005b6100d96107cf565b6040516100e69190610d6d565b60405180910390f35b6100f761081a565b60405161010491906110c6565b60405180910390f35b61011561096b565b60405161012291906111b3565b60405180910390f35b60006101ac6040518060400160405280601481526020017f2573206861732073656e7420256420776176657300000000000000000000000081525083600260008673ffffffffffffffffffffffffffffffffffffffff1673ffffffffffffffffffffffffffffffffffffffff16815260200190815260200160002054610ab5565b600260008373ffffffffffffffffffffffffffffffffffffffff1673ffffffffffffffffffffffffffffffffffffffff168152602001908152602001600020549050919050565b60006102746040518060400160405280601481526020017f2573206861732073656e7420256420776176657300000000000000000000000081525033600260003373ffffffffffffffffffffffffffffffffffffffff1673ffffffffffffffffffffffffffffffffffffffff16815260200190815260200160002054610ab5565b600260003373ffffffffffffffffffffffffffffffffffffffff1673ffffffffffffffffffffffffffffffffffffffff16815260200190815260200160002054905090565b42610384600360003373ffffffffffffffffffffffffffffffffffffffff1673ffffffffffffffffffffffffffffffffffffffff168152602001908152602001600020546103079190611204565b10610347576040517f08c379a000000000000000000000000000000000000000000000000000000000815260040161033e90611295565b60405180910390fd5b42600360003373ffffffffffffffffffffffffffffffffffffffff1673ffffffffffffffffffffffffffffffffffffffff16815260200190815260200160002081905550600160008082825461039d9190611204565b925050819055506001600260003373ffffffffffffffffffffffffffffffffffffffff1673ffffffffffffffffffffffffffffffffffffffff16815260200190815260200160002060008282546103f49190611204565b925050819055506001600260003373ffffffffffffffffffffffffffffffffffffffff1673ffffffffffffffffffffffffffffffffffffffff16815260200190815260200160002054036104d857600460405180602001604052803373ffffffffffffffffffffffffffffffffffffffff168152509080600181540180825580915050600190039060005260206000200160009091909190915060008201518160000160006101000a81548173ffffffffffffffffffffffffffffffffffffffff021916908373ffffffffffffffffffffffffffffffffffffffff16021790555050505b600560405180606001604052803373ffffffffffffffffffffffffffffffffffffffff16815260200183815260200142815250908060018154018082558091505060019003906000526020600020906003020160009091909190915060008201518160000160006101000a81548173ffffffffffffffffffffffffffffffffffffffff021916908373ffffffffffffffffffffffffffffffffffffffff160217905550602082015181600101908161059091906114c1565b506040820151816002015550506105ff6040518060600160405280602d8152602001611804602d913933600260003373ffffffffffffffffffffffffffffffffffffffff1673ffffffffffffffffffffffffffffffffffffffff16815260200190815260200160002054610ab5565b606460015444426106109190611204565b61061a9190611204565b61062491906115c2565b60018190555061066b6040518060400160405280600f81526020017f52616e646f6d206e756d6265723a200000000000000000000000000000000000815250600154610b54565b6032600154101561077c576106b56040518060400160405280600781526020017f257320776f6e210000000000000000000000000000000000000000000000000081525033610bf0565b6000655af3107a40009050478111156106cd57600080fd5b60003373ffffffffffffffffffffffffffffffffffffffff16826040516106f390611624565b60006040518083038185875af1925050503d8060008114610730576040519150601f19603f3d011682016040523d82523d6000602084013e610735565b606091505b5050905080610779576040517f08c379a0000000000000000000000000000000000000000000000000000000008152600401610770906116ab565b60405180910390fd5b50505b3373ffffffffffffffffffffffffffffffffffffffff167f5f7e16dc676677766a70e9c5628aa6c54ddb8b6e5188e2ae1e1f17f1ffbea71642836040516107c4929190611704565b60405180910390a250565b60006108126040518060400160405280601781526020017f5765206861766520257320746f74616c20776176657321000000000000000000815250600054610b54565b600054905090565b60606005805480602002602001604051908101604052809291908181526020016000905b8282101561096257838290600052602060002090600302016040518060600160405290816000820160009054906101000a900473ffffffffffffffffffffffffffffffffffffffff1673ffffffffffffffffffffffffffffffffffffffff1673ffffffffffffffffffffffffffffffffffffffff1681526020016001820180546108c7906112e4565b80601f01602080910402602001604051908101604052809291908181526020018280546108f3906112e4565b80156109405780601f1061091557610100808354040283529160200191610940565b820191906000526020600020905b81548152906001019060200180831161092357829003601f168201915b505050505081526020016002820154815250508152602001906001019061083e565b50505050905090565b60606004805480602002602001604051908101604052809291908181526020016000905b82821015610a13578382906000526020600020016040518060200160405290816000820160009054906101000a900473ffffffffffffffffffffffffffffffffffffffff1673ffffffffffffffffffffffffffffffffffffffff1673ffffffffffffffffffffffffffffffffffffffff16815250508152602001906001019061098f565b50505050905090565b610ab281604051602401610a309190611734565b6040516020818303038152906040527f41304fac000000000000000000000000000000000000000000000000000000007bffffffffffffffffffffffffffffffffffffffffffffffffffffffff19166020820180517bffffffffffffffffffffffffffffffffffffffffffffffffffffffff8381831617835250505050610c8c565b50565b610b4f838383604051602401610acd93929190611765565b6040516020818303038152906040527f0d26b925000000000000000000000000000000000000000000000000000000007bffffffffffffffffffffffffffffffffffffffffffffffffffffffff19166020820180517bffffffffffffffffffffffffffffffffffffffffffffffffffffffff8381831617835250505050610c8c565b505050565b610bec8282604051602401610b6a9291906117a3565b6040516020818303038152906040527fb60e72cc000000000000000000000000000000000000000000000000000000007bffffffffffffffffffffffffffffffffffffffffffffffffffffffff19166020820180517bffffffffffffffffffffffffffffffffffffffffffffffffffffffff8381831617835250505050610c8c565b5050565b610c888282604051602401610c069291906117d3565b6040516020818303038152906040527f319af333000000000000000000000000000000000000000000000000000000007bffffffffffffffffffffffffffffffffffffffffffffffffffffffff19166020820180517bffffffffffffffffffffffffffffffffffffffffffffffffffffffff8381831617835250505050610c8c565b5050565b60008151905060006a636f6e736f6c652e6c6f679050602083016000808483855afa5050505050565b6000604051905090565b600080fd5b600080fd5b600073ffffffffffffffffffffffffffffffffffffffff82169050919050565b6000610cf482610cc9565b9050919050565b610d0481610ce9565b8114610d0f57600080fd5b50565b600081359050610d2181610cfb565b92915050565b600060208284031215610d3d57610d3c610cbf565b5b6000610d4b84828501610d12565b91505092915050565b6000819050919050565b610d6781610d54565b82525050565b6000602082019050610d826000830184610d5e565b92915050565b600080fd5b600080fd5b6000601f19601f8301169050919050565b7f4e487b7100000000000000000000000000000000000000000000000000000000600052604160045260246000fd5b610ddb82610d92565b810181811067ffffffffffffffff82111715610dfa57610df9610da3565b5b80604052505050565b6000610e0d610cb5565b9050610e198282610dd2565b919050565b600067ffffffffffffffff821115610e3957610e38610da3565b5b610e4282610d92565b9050602081019050919050565b82818337600083830152505050565b6000610e71610e6c84610e1e565b610e03565b905082815260208101848484011115610e8d57610e8c610d8d565b5b610e98848285610e4f565b509392505050565b600082601f830112610eb557610eb4610d88565b5b8135610ec5848260208601610e5e565b91505092915050565b600060208284031215610ee457610ee3610cbf565b5b600082013567ffffffffffffffff811115610f0257610f01610cc4565b5b610f0e84828501610ea0565b91505092915050565b600081519050919050565b600082825260208201905092915050565b6000819050602082019050919050565b610f4c81610ce9565b82525050565b600081519050919050565b600082825260208201905092915050565b60005b83811015610f8c578082015181840152602081019050610f71565b60008484015250505050565b6000610fa382610f52565b610fad8185610f5d565b9350610fbd818560208601610f6e565b610fc681610d92565b840191505092915050565b610fda81610d54565b82525050565b6000606083016000830151610ff86000860182610f43565b50602083015184820360208601526110108282610f98565b91505060408301516110256040860182610fd1565b508091505092915050565b600061103c8383610fe0565b905092915050565b6000602082019050919050565b600061105c82610f17565b6110668185610f22565b93508360208202850161107885610f33565b8060005b858110156110b457848403895281516110958582611030565b94506110a083611044565b925060208a0199505060018101905061107c565b50829750879550505050505092915050565b600060208201905081810360008301526110e08184611051565b905092915050565b600081519050919050565b600082825260208201905092915050565b6000819050602082019050919050565b60208201600082015161112a6000850182610f43565b50505050565b600061113c8383611114565b60208301905092915050565b6000602082019050919050565b6000611160826110e8565b61116a81856110f3565b935061117583611104565b8060005b838110156111a657815161118d8882611130565b975061119883611148565b925050600181019050611179565b5085935050505092915050565b600060208201905081810360008301526111cd8184611155565b905092915050565b7f4e487b7100000000000000000000000000000000000000000000000000000000600052601160045260246000fd5b600061120f82610d54565b915061121a83610d54565b9250828201905080821115611232576112316111d5565b5b92915050565b600082825260208201905092915050565b7f576169742031356d000000000000000000000000000000000000000000000000600082015250565b600061127f600883611238565b915061128a82611249565b602082019050919050565b600060208201905081810360008301526112ae81611272565b9050919050565b7f4e487b7100000000000000000000000000000000000000000000000000000000600052602260045260246000fd5b600060028204905060018216806112fc57607f821691505b60208210810361130f5761130e6112b5565b5b50919050565b60008190508160005260206000209050919050565b60006020601f8301049050919050565b600082821b905092915050565b6000600883026113777fffffffffffffffffffffffffffffffffffffffffffffffffffffffffffffffff8261133a565b611381868361133a565b95508019841693508086168417925050509392505050565b6000819050919050565b60006113be6113b96113b484610d54565b611399565b610d54565b9050919050565b6000819050919050565b6113d8836113a3565b6113ec6113e4826113c5565b848454611347565b825550505050565b600090565b6114016113f4565b61140c8184846113cf565b505050565b5b81811015611430576114256000826113f9565b600181019050611412565b5050565b601f8211156114755761144681611315565b61144f8461132a565b8101602085101561145e578190505b61147261146a8561132a565b830182611411565b50505b505050565b600082821c905092915050565b60006114986000198460080261147a565b1980831691505092915050565b60006114b18383611487565b9150826002028217905092915050565b6114ca82610f52565b67ffffffffffffffff8111156114e3576114e2610da3565b5b6114ed82546112e4565b6114f8828285611434565b600060209050601f83116001811461152b5760008415611519578287015190505b61152385826114a5565b86555061158b565b601f19841661153986611315565b60005b828110156115615784890151825560018201915060208501945060208101905061153c565b8683101561157e578489015161157a601f891682611487565b8355505b6001600288020188555050505b505050505050565b7f4e487b7100000000000000000000000000000000000000000000000000000000600052601260045260246000fd5b60006115cd82610d54565b91506115d883610d54565b9250826115e8576115e7611593565b5b828206905092915050565b600081905092915050565b50565b600061160e6000836115f3565b9150611619826115fe565b600082019050919050565b600061162f82611601565b9150819050919050565b7f4661696c656420746f207769746864726177206d6f6e65792066726f6d20636f60008201527f6e74726163742e00000000000000000000000000000000000000000000000000602082015250565b6000611695602783611238565b91506116a082611639565b604082019050919050565b600060208201905081810360008301526116c481611688565b9050919050565b60006116d682610f52565b6116e08185611238565b93506116f0818560208601610f6e565b6116f981610d92565b840191505092915050565b60006040820190506117196000830185610d5e565b818103602083015261172b81846116cb565b90509392505050565b6000602082019050818103600083015261174e81846116cb565b905092915050565b61175f81610ce9565b82525050565b6000606082019050818103600083015261177f81866116cb565b905061178e6020830185611756565b61179b6040830184610d5e565b949350505050565b600060408201905081810360008301526117bd81856116cb565b90506117cc6020830184610d5e565b9392505050565b600060408201905081810360008301526117ed81856116cb565b90506117fc6020830184611756565b939250505056fe25732068617320776176656421204865206861732073656e74206120746f74616c206f66202564207761766573a26469706673582212206aa7baf9ae401520ac8426580ec3a2d7092df12069c2f82b4c1025a79779df5664736f6c634300081100334f6e6520736d616c6c207374657020666f72206d616e20627574206f6e65206769616e74207374657020666f72206d616e6b696e6421",
	"linkReferences": {},
	"deployedLinkReferences": {}
}